:020000040800F2
:10000000082600204501000819260008A11C000848
:1000100015260008C90B0008694F00080000000001
:100020000000000000000000000000003140000857
:1000300051110008000000002D2700081941000898
:100040005F0100085F0100085F0100083D2A000809
:100050005F0100085F0100085F0100085F01000800
:100060005F0100085F0100085F0100085F010008F0
:100070005F0100085F0100085F0100085F010008E0
:100080005F0100085F0100085F0100085F010008D0
:100090005F0100085F0100085F010008B514000857
:1000A0005F0100085F0100085F0100085F010008B0
:1000B0005F0100085F0100085F0100085F010008A0
:1000C0005F0100085F0100085F0100085F01000890
:1000D0005F0100085F0100085F0100085F01000880
:1000E0005F0100085F0100085F0100085F01000870
:1000F0005F0100085F0100085F0100085F01000860
:100100005F0100085F0100085F0100085F0100084F
:100110005F0100085F0100085F0100085F0100083F
:100120005F0100085F0100085F0100085F0100082F
:10013000DFF80CD000F08CFB004800475569000840
:10014000082600200648804706480047FEE7FEE7ED
:10015000FEE7FEE7FEE7FEE7FEE7FEE7FEE7FEE777
:100160009D4100083101000840EA01039B0703D0CC
:1001700009E008C9121F08C0042AFAD203E011F8E6
:10018000013B00F8013B521EF9D27047D2B201E0A8
:1001900000F8012B491EFBD270470022F6E710B58C
:1001A00013460A4604461946FFF7F0FF204610BDE5
:1001B00030B505462A460B4612F8010B13F8014BE1
:1001C00008B1A042F8D01CB1002802D06D1CF1E7A4
:1001D000284630BD80EA010210B502F0004340001D
:1001E00026D04A0023D04FEA106101EB1261C0F320
:1001F0005600C2F3560240F4000042F40002A0FB95
:100200000220A1F17F014FEA0040140401D000F167
:10021000010050EA124001D44000491EC2B20C064F
:1002200004EBD010401C4008802A02D003E00020DC
:1002300010BD20F00100002900DA0020184310BD95
:1002400030B480EA010202F0004530F0004221F0B3
:10025000004015D0A0B1C0F3C753C2F3C754C2F3D6
:100260001601C0F31600E41A41F4000140F4000244
:100270007D34914201D3641C00E04900002C02DA75
:1002800030BC002070474FF400000023914201D39E
:10029000891A034340084FEA4101F7D151B1914215
:1002A00002D14FF0004105E002D24FF0010101E020
:1002B0006FF0010103EBC450284430BC00F033BAA6
:1002C0002DE9FE4F804681EA0300C00F0C460090E6
:1002D00021F0004123F00045B8EB0200A94105D20E
:1002E0004046214690461C460B46024623F00040FD
:1002F000104304D14046214603B0BDE8F08F270DDE
:10030000C7F30A00C3F30A510290401A0190402833
:1003100066DAC3F3130040F4801B0098924620B1C4
:100320000023D2EB030A63EB0B0B01985946C0F193
:100330004002504600F0C6F906460D465046594662
:10034000019A00F0DEF910EB08006141002487EA11
:10035000115284EAE7731A433BD0009A3AB3019AE8
:10036000012A4FEA075210DC001B61EB02014FF03B
:10037000004202EA0752CDE90042001C41F580111B
:1003800032462B4600F012FAB6E7001B61EB020181
:10039000001C41F5801300185B412018A2F50017DE
:1003A00047EB030140EAD570B6196D4111E06D08C5
:1003B0004FEA360645EAC0754FEA0752001B61EB6B
:1003C0000201001C41F5801149084FEA3000001974
:1003D000514132462B4603B0BDE8F04F00F0D9B989
:1003E0000098012240000023D0EB020263EBE0738F
:1003F000009821464FEAE074B8EB000061EB04017D
:10040000E9E783F000435BE781F0004158E72DE91D
:10041000FE4F81EA030404F0004421F000410094FF
:100420004FF0000B23F0004350EA010402D052EADF
:10043000030404D10020014603B0BDE8F08FC3F3EC
:100440000A54C1F30A552C44A4F2F3340194A0FBDE
:100450000254C1F3130141F48011C3F3130343F4B5
:10046000801301FB024400FB034E840A970A44EA0E
:10047000815447EA8357A4FB076802958D0A05FB60
:1004800007854FEA932C04FB0C542705029D4FEA85
:10049000065847EA1637B5EB08056EEB070C870ED2
:1004A000920E47EA811742EA8312A7FB0201B6EBDC
:1004B0000B0164EB00042B0D43EA0C335E1844EB94
:1004C0001C50DA465146E7FB0201C5F313044FEA1C
:1004D0000B3343EA14534FEA0432019C43EA060308
:1004E000A4F10C040294009CCDE900B400F05EF984
:1004F000A2E72DE9F04D81EA030404F0004B21F05E
:10050000004514464FF0000A23F0004150EA05026E
:1005100020D054EA01021DD0C5F30A570246C5F3A4
:100520001303C1F31300C1F30A5640F4801543F4DA
:100530008013A7EB0608101BD64608F2FD3873EBB4
:10054000050002D308F1010801E092185B41B8F1FF
:10055000000F03DA00200146BDE8F08D00204FF4C3
:100560008011064684460EE0171B73EB050705D382
:10057000121B63EB050306434CEA010C49084FEAE2
:10058000300092185B4150EA0107EDD152EA0300B6
:1005900012D082EA040083EA0501084303D1002255
:1005A0004FF0004308E0101BAB4102D201220023B0
:1005B00002E06FF0010253101AEB06004CEB0851F9
:1005C00010EB0A0041EB0B01BDE8F04D00F0E1B883
:1005D00096230022114600F0AFB80EB5C10F80EA95
:1005E000E0700844CA07002140F233438DE80E0052
:1005F0000A460B4600F0DAF803B000BD0EB540F233
:10060000334102910021CDE900110A460B4600F06A
:10061000CDF803B000BD20F00040C10DC0F31600BE
:1006200040F400007F2901DA00207047962903DC9E
:10063000C1F19601C8407047963988407047C1F3B0
:100640000A5210B5C1F3130140F2FF3341F4801197
:100650009A4201DA002010BD40F233439A42A2F2DE
:10066000334203DC524200F03CF810BD904010BD14
:1006700030B5002904DB4FF00044404264EB010137
:10068000002B04DB4FF00044524264EB03038B4227
:1006900008BF824230BD000030B50B460146002045
:1006A0002022012409E021FA02F59D4205D303FA34
:1006B00002F5491B04FA02F52844151EA2F10102B5
:1006C000F1DC30BD202A04DB203A00FA02F10020E0
:1006D00070479140C2F1200320FA03F31943904080
:1006E0007047202A04DB203A21FA02F000217047EB
:1006F00021FA02F3D040C2F120029140084319468A
:100700007047202A06DBCB17203A41FA02F043EA71
:10071000E07306E041FA02F3D040C2F120029140BA
:100720000843194670470029A8BF7047401C49007C
:1007300008BF20F00100704710B4B0FA80FC00FA46
:100740000CF050EA010404BF10BC704749B1CCF171
:10075000200421FA04F411FA0CF118BF01212143FD
:100760000843A3EB0C01CB1D0106000A002BBEBF02
:10077000002010BC704700EBC35010440029A4BFF8
:1007800010BC7047401C490008BF20F0010010BC9D
:10079000704710B5002B08DA401C41F10001921897
:1007A0005B411A4301D120F0010010BD2DE9F04D4D
:1007B00092469B4611B1B1FA81F202E0B0FA80F2A2
:1007C00020329046FFF77EFF04460F4640EA0A00BB
:1007D00041EA0B0153465A46084303D120463946A5
:1007E000BDE8F08D114653EA010015D0C8F1400272
:1007F0005046FFF776FF05460E465046594642469C
:10080000FFF760FF084301D0012000E0002005430E
:1008100046EAE0762C4337430A984FEA4453A0EB6C
:1008200008004FEAD4240A304FF0000244EA47544B
:100830004FEAD72502D500200146D1E7010510195E
:100840006941DDE9084500196941BDE8F04DA0E7BF
:10085000064C074D06E0E06840F0010394E807000D
:1008600098471034AC42F6D3FFF766FCA82703087C
:10087000C827030870B501EB020410F8015B15F0FE
:10088000070301D110F8013B2A1106D110F8012B02
:1008900003E010F8016B01F8016B5B1EF9D12B0727
:1008A00005D40023521E0FD401F8013BFAE710F8DB
:1008B000013B02F10202A1EB030303E013F8015B29
:1008C00001F8015B521EF9D5A142D6D3002070BDBC
:1008D00008B50121084601F037FF01214FF40470EB
:1008E00001F052FF0320ADF8000000208DF8030056
:1008F0006946024800F0F0FF08BD0000001001400A
:1009000010B5FFF7E5FF00F001F810BD00B591B09C
:10091000364800F043FB36480690364807900020E2
:1009200008900220099000200A9080200B9040003F
:100930000C9080000D9020200E9000020F9000205F
:10094000109006A9294800F0E5FB0121274800F096
:1009500019FB0020019001208DF808008DF8090096
:100960004FF4602003900020049002208DF81400C2
:1009700001A91F484C3800F069F84FF4404001F0DD
:10098000D7FE052301220A2119484C3800F086F8C9
:10099000052302220B2116484C3800F07FF8012174
:1009A00013484C3800F033F8012111484C3800F05E
:1009B00023F80F484C3800F0CDF800BF0C484C38F5
:1009C00000F03AF80028F9D109484C3800F0D2F884
:1009D00000BF07484C3800F025F80028F9D1012164
:1009E00003484C3800F0BBF811B000BD08000240CD
:1009F0004C2401405400002021B1826842F00102E1
:100A0000826003E0826822F001028260704721B1B7
:100A1000826842F48072826003E0826822F480720D
:100A200082607047014600208A6812F0040F01D0EE
:100A3000012000E000207047014600208A6812F083
:100A4000080F01D0012000E00020704730B50246B9
:100A50000020002350680F4C20400D790C6844EAB8
:100A600005242043506090680B4C2040D1E902548B
:100A70002C434D7944EA450420439060D06A20F429
:100A800070000C7C641EE4B2234340EA0350D06241
:100A900030BD0000FFFEF0FFFDF7F1FFF0B50446AA
:100AA0000D4600200021092D11DDE068A5F10A06A0
:100AB00006EB4607072606FA07F18843A5F10A0662
:100AC00006EB460603FA06F10843E0600CE02069F5
:100AD00005EB4507072606FA07F1884305EB4506AF
:100AE00003FA06F108432061072A0FDA606B561EED
:100AF00006EB86071F2606FA07F18843561E06EB0B
:100B0000860605FA06F10843606322E00D2A0FDA33
:100B1000206BD61F06EB86071F2606FA07F18843CF
:100B2000D61F06EB860605FA06F10843206310E09F
:100B3000E06AA2F10D0606EB86071F2606FA07F10A
:100B40008843A2F10D0606EB860605FA06F1084376
:100B5000E062F0BD816841F008018160704721B119
:100B6000826842F4A002826003E0826822F4A0025C
:100B700082607047816841F004018160704710B560
:100B8000012001F011FE002001F00EFE10BD00005A
:100B900008B50146002000900348009000980844E2
:100BA00000900098008808BD006C004008B5002245
:100BB0000092044A0092009A02440092009A116046
:100BC00008BD0000006C004000BFFEE72DE9F047C3
:100BD00005460C4616464FF0010921882289891ADC
:100BE000E38862899A1A5143A2882389D31A6788B5
:100BF0006289BA1A03FB1210FFF7EFFCC6E90C0179
:100C000000221346D6E90C713846FFF731FD02D1B8
:100C10004FF0000989E029882A89891AE3886289C6
:100C20009A1A5143AA882B89D31A67886289BA1AFB
:100C300003FB1210FFF7D1FCC6E9000121882289CD
:100C4000891AAA882B89D21A51432A88D21AA388D2
:100C50002789DB1B02FB1310FFF7BFFCC6E902016B
:100C60002189AA885143A2882B8902FB131162882B
:100C7000514322885A4323892F8803FB1723E28894
:100C800003FB0212A18879432388AF8803FB171363
:100C9000618903FB0120FFF7A0FCC6E904016A8813
:100CA0006989511AE38862899A1A5143EB886A89E3
:100CB0009B1A67886289BA1A03FB1210FFF78DFC32
:100CC000C6E9060121882289891AEB886A899A1A5D
:100CD00051436B886A899A1AA3882789DB1B02FB18
:100CE0001310FFF77AFCC6E908012189EA8851430D
:100CF000A3886A8903FB12116288514322886B8999
:100D00005A4323896F8803FB1723E28803FB0213EE
:100D1000A18879432788EA8807FB1212618902FBC0
:100D20000130FFF75AFCC6E90A014846BDE8F087E2
:100D300070B500254FF4803400E0641E24B180209B
:100D400002F0D6F80028F8D014B90325284670BD63
:100D500040F2FF5002F08AF82846F8E7014600BF4B
:100D60000748406B10F0450FFAD040F2FF50044A9C
:100D700090631046406908221040C0B270470000DE
:100D80000080014070B500250F48446B01E00E481B
:100D9000446B14F0450FFAD014F0040F05D003256E
:100DA000042002F063F8284670BD14F0010F05D04E
:100DB0000125012002F05AF82846F5E740F2FF50DD
:100DC00002F054F82846EFE70080014070B5002596
:100DD0000B48446B01E00A48446B14F0450FFAD00D
:100DE00014F0040F05D00325042002F03FF8284634
:100DF00070BD40F2FF5002F039F82846F8E70000D5
:100E0000008001402DE9F04106460F464FF00008F2
:100E10002248456B01E02148456B15F0450FFAD09B
:100E200015F0040F07D04FF00308042002F01EF85D
:100E30004046BDE8F08115F0010F06D04FF00108E3
:100E4000012002F013F84046F3E702F04BF8B042FD
:100E500003D04FF010084046EBE740F2FF5002F09D
:100E600005F8002002F058F8044614F4604F03D14E
:100E7000200C38804046DCE714F4005F01D01320DA
:100E8000D7E714F4804F01D01020D2E714F4004FBC
:100E900001D00F20CDE74046CBE7000000800140A5
:100EA00070B500264FF480350F48446B02E06D1E8C
:100EB0000D48446B14F0450F01D1002DF7D115B149
:100EC00014F0040F05D00326042001F0CFFF3046B4
:100ED00070BD14F0400F05D00026402001F0C6FF81
:100EE0003046F5E73046F3E70080014008B50121C0
:100EF000082001F049FC4FF48060ADF8000010209C
:100F00008DF8030003208DF802006946044800F0C4
:100F1000E3FC4FF48061024800F0B4FD08BD00001E
:100F2000000C014008B54FF48060ADF80000482087
:100F30008DF803006946024800F0CEFC08BD0000B1
:100F4000000C014008B54FF48060ADF8000010209F
:100F50008DF8030003208DF802006946014800F077
:100F6000BBFC08BD000C014010F0805F02D00349BB
:100F7000086001E002494860704700000404024034
:100F80000000024021B1026842F00102026004E068
:100F900002684FF6FE731A400260704701684FF610
:100FA000FE72114001600021016041608160C160FA
:100FB0004B49884208D14A490839496841F00F0134
:100FC000474A083A51608AE045491431884208D1BD
:100FD00043490839496841F0F001414A083A5160F3
:100FE0007DE03F492831884208D13D4908394968A8
:100FF00041F470613A4A083A516070E038493C3136
:10100000884208D136490839496841F47041344A68
:10101000083A516063E032495031884208D1304982
:101020000839496841F470212D4A083A516056E068
:101030002B496431884208D129490839496841F46B
:101040007001274A083A516049E0254978318842C1
:1010500008D123490839496841F07061204A083AAB
:1010600051603CE01F49884206D1011F096841F0E8
:101070000F01021F116032E01A491431884208D171
:101080001849091F096841F0F001164A121F116042
:1010900025E014492831884208D11249091F0968FE
:1010A00041F470610F4A121F116018E00D493C3184
:1010B000884208D10B49091F096841F47041094A67
:1010C000121F11600BE007495031884207D10549D2
:1010D000091F096841F47021024A121F116070470C
:1010E000080002400804024001460020002211F0DE
:1010F000805F02D0054B1A6801E0054B1A680A426E
:1011000001D0012000E000207047000000040240F0
:101110000000024010B50022026847F6F0739A43BF
:101120000C6A8B6823430C6923434C6923438C6905
:101130002343CC6923434C6A23438C6A23431A43D9
:101140000260CB6843600B6883604B68C36010BD6E
:10115000704701B5002008E00C2100BF0A00A1F192
:101160000103D9B2FAD1411C88B200998842F3D365
:1011700008BD000001B50849009808604FF0E02064
:10118000006940F001004FF0E021086100BF024813
:1011900000680028FBD108BD4C00002038B504468B
:1011A0000D464FF478400123142229460090204632
:1011B00000F078FD4FF47840A5F10A0291B204F1F5
:1011C0000A02009090B21423012200F06BFD38BD9A
:1011D0002DE9F04106460C4615461F462648B0F854
:1011E0000004C10BC9032448A0F80014324623A10F
:1011F000244803F015FD1CB915B90120BDE8F081A4
:10120000642107FB01F0FFF7B5FF00211A48B0F891
:101210000004C0F30E00184A115411461AA003F03E
:1012200013FFB4B1ADB121461348FEF7C1FF08B1B9
:10123000012000E0002040B929460F48FEF7B8FF22
:1012400008B1012000E0002008B10120D6E700200D
:10125000D4E744B121460848FEF7AAFF08B10120AF
:10126000CCE70020CAE729460348FEF7A1FF08B1F2
:101270000120C3E70020C1E7041E002025730D0AEA
:1012800000000000004400402573000010B5A4B029
:1012900004460CB1012000E00020024609A11FA86D
:1012A00003F0E2FE4FF434620AA101A803F0DCFE71
:1012B0004FF4FA7300220BA11FA8FFF789FF24B097
:1012C00010BD000041542B4349504D55583D2564F5
:1012D0000000000041542B43495053544F3D2573A7
:1012E000000000004F4B0000F0B5B9B006460F46B5
:1012F00014461D46642120A8FEF74FFF16B1012EAB
:1013000010D107E03B4614A214A120A8009403F0DA
:10131000ABFE08E03B4615A210A120A8009403F004
:10132000A3FE00E000BF00BF052D06DA20AB2A4671
:101330000FA102A803F098FE04E020AA11A102A8C0
:1013400003F092FE4FF47A7312A216A102A8FFF7DF
:101350003FFF39B0F0BD00005443500022257322F6
:101360002C222573222C25730000000055445000C8
:1013700041542B43495053544152543D25642C252C
:101380007300000041542B43495053544152543D83
:1013900025730000414C5245415920434F4E4E4564
:1013A000435400004F4B000010B5044624B1012CFB
:1013B0000AD0022C18D10FE040F6C4130BA20EA1E4
:1013C0000EA0FFF705FF10BD40F6C41307A20AA147
:1013D0000DA0FFF7FDFEF6E740F6C41303A206A139
:1013E0000CA0FFF7F5FEEEE70020ECE76E6F206340
:1013F00068616E67650000004F4B000041542B434D
:10140000574D4F44453D310041542B43574D4F44B8
:10141000453D320041542B43574D4F44453D330029
:1014200030B585B004460025224605A1684603F084
:101430001BFE6946044803F0F3FB284605B030BDA7
:1014400025640D0A000000000044004010B54FF470
:101450007A73002208A109A0FFF7BAFE05230BA2A8
:101460000CA10020FFF740FF4FF47A730CA20DA1EE
:101470000DA0FFF7ADFE10BD4F4B000041542B43B4
:1014800049504D4F44453D31000000003830383060
:10149000000000003139322E3136382E332E320022
:1014A0003E0000000D0A000041542B4349505345B3
:1014B0004E44000010B54FF4007000F011F828B150
:1014C000012003490870400200F004F810BD00003C
:1014D0002C000020014908607047000014040140FE
:1014E000014600200022074B1B6803EA0102054B5E
:1014F00014331B680B4202D00AB1012000E0002027
:101500007047000000040140002123498279002A2D
:101510003AD00A46126803689A430B461A600A1DBD
:10152000126803689A430B1D1A60027911440A6815
:1015300003681A430A60184A0832126803689A431B
:10154000154B08331A601A1D126803689A43124B30
:101550000C331A604279102A0ED11A1F12680368E0
:101560001A430D4B08331A601A1D126803681A4398
:10157000094B0C331A600DE00749427911440A689F
:1015800003681A430A6005E0027911440A68036897
:101590009A430A60704700000004014051B14FF0C7
:1015A000204252F8202042F001024FF0204343F83D
:1015B000202009E04FF0204252F82020034B1A402F
:1015C0004FF0204343F8202070470000FEFF0F003B
:1015D000D0E901121143C268114302691143426903
:1015E000114382691143C2691143026A1143426A7D
:1015F0001143826A1143C26A1143026B11434FF0D7
:101600002043026843F822108168082908D11A464D
:10161000016852F8211041F04001026843F822109D
:10162000416B0968426B526841EA0211426B926851
:1016300041EA0221426B928941EA0241426B128ADD
:1016400041EA0251426B127D41EA0261426B9269AA
:1016500011430268521C4FF0204343F82210C16A24
:10166000B1F5804F1AD1816B0968826B526841EAEB
:101670000211826B926841EA0221826B128A41EA6E
:101680000251826B127D41EA0261826B92691143C1
:10169000026803EB8202C2F8041108E06FF07041A7
:1016A0004FF02043026803EB8202C2F80411704736
:1016B0002DE9FC4107460D4600260024002000903D
:1016C000019008205C490860102048604020886034
:1016D0000020C8604FF480600861084601F056FCA5
:1016E0001020FFF73BFB044614B12046BDE8FC8107
:1016F0005248008800045049086037204860402064
:1017000088600020C8604FF480600861084601F0DE
:101710003DFC3720FFF722FB04460CB12046E5E7ED
:101720004FF0FF304649086008204860302088604C
:101730000220C8600020086101204861084601F0CD
:10174000A7FB00203C4908603320486040208860A7
:101750000020C8604FF480600861084601F016FC64
:101760003320FFF7FBFA04460CB12046BEE70CE03D
:101770004FF4001001F0BCFB38B101F001FC4DF852
:101780002600761C012E00D905E02E48406B40F261
:101790002A610842ECD000BF082001F0A9FB28B163
:1017A000082001F063FB042420469FE7022001F09B
:1017B0009FFB28B1022001F059FB0224204695E747
:1017C000202001F095FB28B1202001F04FFB0624DA
:1017D00020468BE74FF4007001F08AFB30B14FF4E4
:1017E000007001F043FB072420467FE740F2FF50E2
:1017F00001F03CFB00980006009901F47F4140EAAB
:101800000120009901F47F0140EA1120009940EA8B
:101810001160686001980006019901F47F4140EA77
:101820000120019901F47F0140EA1120019940EA69
:1018300011602860204659E7301100206401002023
:10184000441100200080014008B50121302000F043
:101850009BFF4FF4F850ADF8000003208DF8020014
:1018600018208DF803006946094800F035F8042077
:10187000ADF800006946074800F02EF80121880203
:1018800000F062FF0121022000F05EFF08BD0000B1
:10189000001001400014014030B500228B071C0FDE
:1018A0000F2303FA04F20B4B8C1053F824309343AC
:1018B000084C8D1044F8253023468C1053F8243002
:1018C0008C07240F00FA04F42343024C8D1044F8D3
:1018D000253030BD080001402DE9F04102460025C9
:1018E0000026002000230024002791F803C00CF0FC
:1018F0000F0591F803C01CF0100F03D091F802C03F
:101900004CEA050591F800C0BCF1000F31D0146815
:1019100000202BE04FF0010C0CFA00F3B1F800C0EE
:101920000CEA03069E4220D183004FF00F0C0CFA04
:1019300003F7BC4305FA03FC4CEA040491F803C026
:10194000BCF1280F06D14FF0010C0CFA00FCC2F8D4
:1019500014C00AE091F803C0BCF1480F05D14FF064
:10196000010C0CFA00FCC2F810C0401C0828D1D3AE
:101970001460B1F800C0BCF1FF0F34DD54680020E2
:101980002EE000F1080C4FF0010808FA0CF3B1F852
:1019900000C00CEA03069E4221D183004FF00F0CD9
:1019A0000CFA03F7BC4305FA03FC4CEA040491F873
:1019B00003C0BCF1280F05D100F1080C08FA0CF89F
:1019C000C2F8148091F803C0BCF1480F07D100F1B0
:1019D000080C4FF0010808FA0CF8C2F81080401CFF
:1019E0000828CED35460BDE8F081024600209368F9
:1019F0000B4201D0012000E0002070474161704798
:101A000008B501214FF4C07000F0BEFE8020ADF893
:101A1000000001208DF8020010208DF803006946B7
:101A20001648FFF759FF4FF40060ADF80000694613
:101A30001348FFF751FF4020ADF8000001208DF85A
:101A4000020048208DF8030069460D48FFF744FF67
:101A50004FF48060ADF8000001208DF802001020E6
:101A60008DF8030069460648FFF736FF4FF48061A2
:101A70000348FFF7C3FF02F0C1FB08BD002001408F
:101A8000001C0140016170472DE9F04105460C46FC
:101A900026786778A6F1B000C0EB001101EB40108A
:101AA00007EB4000A1384FEA40181149002004F02C
:101AB00043FB01220FA1134804F054FB12490870A4
:101AC0000846007888B941460E4804F05CFA0F4B8E
:101AD000202229460B4804F0FDFB0B4908700948F9
:101AE00004F046FA0020BDE8F0814FF0FF30FAE73D
:101AF0005C110020303A2F485A4C49422E62696EE0
:101B000000000000BC150020780500207C050020A6
:101B10002DE9F04F89B081460C4692464FF0010BFB
:101B200014B94FF0000B66E00022354BDAE90C5196
:101B30002846FEF79DFD5CD06088FEF75FFD0546F8
:101B40003048D0E902733A462846FEF760FCCDE9FA
:101B500002012088FEF752FD07462A48D0E90053CB
:101B60002A463846FEF753FCCDE90001DDE90223A1
:101B7000FEF7A6FBCDE904012248D0E904532A462A
:101B80000498FEF79DFBCDE90601FEF758FDA9F884
:101B900000006088FEF732FD074688461949D1E902
:101BA00008532A464146FEF732FCCDE9020120885F
:101BB000FEF724FD074688461249D1E906532A4616
:101BC0004146FEF724FCCDE90001DDE90223FEF7E2
:101BD00077FBCDE904010B49D1E90A532A4605995F
:101BE000FEF76EFBCDE90601FEF729FDA9F802001C
:101BF00001E04FF0000B584609B0BDE8F08F00003F
:101C00000000F03F88000020F0B58DB0044630227F
:101C1000224901A8FEF7A8FA6069451E642195FBD8
:101C2000F1F12846EA1705EB9272C1EBA2014FF4DD
:101C3000C87295FBF2F28F186069C11700EB9171C1
:101C40008910B0EB810112D16422616991FBF2F33A
:101C500002FB131131B99200616991FBF2F302FBAF
:101C6000131121B92169022901DD012600E00026B6
:101C700040F26D1005FB00712069401E01AA52F868
:101C800020000844E16808440644072096FBF0F170
:101C900000FB1160A0610DB0F0BD0000687A000883
:101CA00000BFFEE7F0B5059D00242A264FF0D84777
:101CB0003E8006124FF0DA473E80C6B23E8086185C
:101CC000761EC6F30F263E808618761EF6B23E803C
:101CD0002B264FF0D8473E800E124FF0DA473E8059
:101CE000CEB23E80CE18761EC6F30F263E80CE18AA
:101CF000761EF6B23E802C264FF0D8473E8000BFBD
:101D000003E04FF0DA463580641C02FB03F6A6427E
:101D1000F7D8F0BD2DE9F0470646884614469946A7
:101D20000027002525463DB94B4630224146304626
:101D300000F068F8BDE8F08703E00A20B5FBF0F595
:101D40007F1C002DF9D115E00A20B4FBF0F100FB57
:101D5000114000F1300A39467F1E062202FB016164
:101D6000891F88B24B465246414600F04BF80A2084
:101D7000B4FBF0F4002CE7D100BFDBE72DE9F0471E
:101D800088B081468A4616461F46002510231A460B
:101D90005146484600F0DEF92C204FF0D84108802B
:101DA00031466846FFF770FE002425E01DF8145008
:101DB0004FF6FF7000EA05256000401C1DF800008A
:101DC00005434FF0000812E015F4004F03D04FF028
:101DD000DA40078003E000204FF0DA4108804FF638
:101DE000FF7000EA450508F1010000F0FF08B8F1B6
:101DF000100FE9DB601CC4B2102CD7DB08B0BDE8C3
:101E0000F08700002DE9F04F81468A4615461E46B0
:101E1000A5F120001FFA80FB0C23062251464846FC
:101E200000F098F92C204FF0D841088000241BE0E6
:101E30000BEB4B000E4901EB800010F804800027EB
:101E40000EE018F0010F03D04FF0DA40068003E0F7
:101E500000204FF0DA4108804FEA6808781C87B20A
:101E6000062FEEDB601C84B20C2CE1DBBDE8F08FAA
:101E7000F47500082DE9F04105460E4614461F464C
:101E80002CE020787E2814DCB5F59D7F03DD00254D
:101E900006F10C0086B2E42E01DD00250026227832
:101EA0003B4631462846FFF7ADFFA81D85B2641CAE
:101EB00014E0B5F5987F03DD002506F1100086B229
:101EC000E02E01DD002500263B462246314628460D
:101ED000FFF754FFA41C05F1100085B220780028FC
:101EE000CFD1BDE8F081F0B505460E4614461F4639
:101EF00013E0B5F59D7F03DD002506F10C0086B2E9
:101F0000E42E01DD0025002622783B463146284696
:101F1000FFF778FFA81D85B2641C20780028E8D15F
:101F2000F0BD2DE9F04104460D4616461F4614E06B
:101F3000B4F5987F03DD002405F1100085B2E02D93
:101F400001DD002400253B46324629462046FFF7A6
:101F500015FFB61C04F1100084B230780028E7D1D8
:101F6000BDE8F0812DE9F04380460F461546002478
:101F70000026782301223221084600F0EBF82C20BD
:101F80004FF0D8410880962404E04FF0DA400580F5
:101F9000601EC4B2002CF8DC0123C822AA21322022
:101FA00000F0D8F82C204FF0D8410880C82404E075
:101FB0004FF0DA400580601EC4B2002CF8DC00242B
:101FC0002BE004F1330078230122142100F0C2F841
:101FD0002C204FF0D841088058F824006421484351
:101FE000C821B0FBF1F000F0FF09C9F1780000F062
:101FF000FF0900260BE04E4503D14FF0DA40058083
:1020000003E000204FF0DA410880701CC6B2782E41
:10201000F1DB601CC4B2781EC7B2002FD1DCBDE872
:10202000F08300B597B002200190002002900520B7
:10203000039000200490059006904FF08050079088
:10204000062008900020099008200A9010200B908C
:1020500000200C900E900F9010904FF48050119033
:10206000002012901390149001A81590169008A8C3
:10207000FFF7AEFA01210620FFF790FA17B000BD76
:1020800008B50121080200F05FFB01214FF4F47054
:1020900000F07AFB10208DF8030003208DF8020079
:1020A0000220ADF8000069462148FFF715FC4FF407
:1020B0000060ADF8000069461E48FFF70DFC0320E4
:1020C0008DF8020018208DF803004CF20370ADF873
:1020D000000069461848FFF7FFFB4FF68070ADF827
:1020E000000069461548FFF7F7FB1020ADF8000027
:1020F00069461148FFF7F0FB2020ADF80000694663
:102100000D48FFF7E9FB4FF48050ADF80000694639
:102110000848FFF7E1FB0420ADF8000069460748D6
:10212000FFF7DAFB02210248FFF768FC08BD000058
:10213000000C014000200140001401400018014043
:1021400010B5FFF79DFFFFF76CFF00F035F900F0C9
:1021500029F810BD30B52A244FF0D8452C80041240
:102160004FF0DA452C80C4B22C808418641EC4F36E
:102170000F242C808418641EE4B22C802B244FF092
:10218000D8452C800C124FF0DA452C80CCB22C8034
:10219000CC18641EC4F30F242C80CC18641EE4B247
:1021A0002C8030BD00B5CF204FF0D84108800020F2
:1021B0004FF0DA4108808120088030200880ED202F
:1021C0004FF0D841088064204FF0DA4108800320A6
:1021D00008801220088081200880E8204FF0D84134
:1021E000088085204FF0DA41088010200880782090
:1021F0000880CB204FF0D841088039204FF0DA41D9
:1022000008802C20088000200880342008800220CC
:102210000880F7204FF0D841088020204FF0DA41A5
:102220000880EA204FF0D841088000204FF0DA41C2
:1022300008800880B1204FF0D841088000204FF07E
:10224000DA4108801B200880B620410608800A2059
:102250004FF0DA410880A2200880C0204FF0D8411A
:10226000088035204FF0DA410880C1204FF0D84176
:10227000088011204FF0DA410880C5204FF0D84186
:10228000088045204FF0DA4108800880C7204FF0D1
:10229000D8410880A2204FF0DA410880F2204FF0A8
:1022A000D841088000204FF0DA41088026204FF006
:1022B000D841088001204FF0DA410880E0204FF03B
:1022C000D84108800F204FF0DA410880262008808E
:1022D000242008800B2008800E2008800920088018
:1022E00054200880A8200880462008800C20088000
:1022F00017200880092008800F2008800720088008
:1023000000200880E1204FF0D841088000204FF0E5
:10231000DA410880192008801B20088004200880EA
:1023200010200880072008802A2008804720088085
:10233000392008800320088006200880088030208B
:102340000880382008800F20088036204106088049
:10235000C8204FF0DA4108802A204FF0D841088089
:1023600000204FF0DA41088008800880EF200880C4
:102370002B204FF0D841088000204FF0DA41088030
:102380000880012008803F2008803A204FF0D84183
:10239000088055204FF0DA41088011204FF0D841D5
:1023A0000880044800F09AF829204FF0D8410880AE
:1023B00000BD0000FCBF020010B54FF400610748EB
:1023C000FFF71CFB064800F089F84FF40061034852
:1023D000FFF758FB024800F081F810BD00200140D3
:1023E000FCBF020010B54FF478432BA2D2219020FD
:1023F000FFF797FD4FF4784329A2D2210020FFF781
:1024000090FD4FF4784328A20A210846FFF789FD82
:102410004FF4784326A21E210A20FFF782FD4FF4D5
:10242000784325A232210A20FFF77BFD4FF4784341
:1024300024A246210A20FFF71DFD244802784FF60A
:10244000FF730A216420FFF765FC204882784FF66D
:10245000FF731E216420FFF75DFC4FF6FF7300221F
:1024600032216420FFF756FC4FF6FF7318A2322189
:102470006A20FFF738FD4FF6FF73164832210268D5
:102480007020FFF747FC4FF6FF73134846210268A0
:102490006420FFF73FFC10BDCBA2D0C200000000BB
:1024A000C8B7B6A800000000CAAAB6C8000000005D
:1024B000CEC2B6C800000000D1CCCEEDC5A8B6C8CB
:1024C00000000000504D322E350000003400002086
:1024D0002E000000400000204400002001B502E072
:1024E0000098401E009000980028F9D108BD0128EE
:1024F00006D0022825D0032844D0042820D162E049
:1025000036214A061180C8214FF0DA4211802A2173
:102510004FF0D842118000214FF0DA421180118033
:102520001180EF2111802B214FF0D8421180002122
:102530004FF0DA4211801180012111803F2111807A
:1025400062E036214A06118068214FF0DA4211809C
:102550002A214FF0D842118000214FF0DA42118039
:102560001180012111803F2111802B214FF0D84291
:10257000118000214FF0DA42118011801180EF218B
:10258000118041E036214A06118028214FF0DA42BD
:1025900011802A214FF0D842118000214FF0DA42F9
:1025A00011801180012111803F2111802B214FF0DA
:1025B000D842118000214FF0DA4211801180118041
:1025C000EF21118020E036214A06118048214FF08A
:1025D000DA4211802A214FF0D842118000214FF0B9
:1025E000DA42118011801180EF2111802B214FF0F0
:1025F000D842118000214FF0DA4211801180012170
:1026000011803F21118000BF00BF2C214FF0D84224
:102610001180704700BFFEE77047000070B50021D1
:1026200000230F22C4780CB3164C246804F4E06431
:10263000C4F5E064210AC1F10403CA40447804FAF5
:1026400003F184781440214309010F4C0678A15509
:10265000047804F01F050124AC4005786D114FF09B
:10266000E02606EB8505C5F8004109E0047804F092
:102670001F050124AC40054D0678761145F826402B
:1026800070BD00000CED00E000E400E080E100E03F
:1026900002490143024A1160704700000000FA0538
:1026A0000CED00E010B504210D48FFF7EBF94FF4F5
:1026B0008C70FEF75FFD0B490888FDF789FF0A491A
:1026C00008602820FEF756FD04210548FFF796F91B
:1026D00042F2D050FEF74EFD0348006810BD0000E6
:1026E000000C0140540000205000002008B50121DA
:1026F000082000F049F80420ADF8000010208DF803
:10270000030003208DF8020069460448FFF7E4F84F
:1027100004210248FFF7B6F908BD0000000C014093
:10272000014908627047000000000E427047000037
:1027300001460020034A506820F44040084350609E
:10274000704700000010024029B1064A5269024356
:10275000044B5A6104E0034A52698243014B5A61B7
:10276000704700000010024029B1064AD2690243B6
:10277000044BDA6104E0034AD2698243014BDA6117
:10278000704700000010024029B1064A92690243D6
:10279000044B9A6104E0034A92698243014B9A61B7
:1027A00070470000001002400149086070470000B7
:1027B000400442420348406A40F080700149486248
:1027C000704700000010024030B5002100220024B4
:1027D00000232D4D6D6805F00C0121B1042905D0B1
:1027E000082923D105E0294D056022E0274D056029
:1027F0001FE0254D6D6805F47012234D6D6805F4DA
:102800008034022505EB92421CB9214D55430560E9
:102810000BE01D4D6D6815F4003F03D01C4D554372
:10282000056002E0194D5543056002E0174D056053
:1028300000BF00BF144D6D6805F0F0010909154D8A
:102840006B5C0568DD4045600F4D6D6805F4E06127
:10285000090A104D6B5C4568DD4085600A4D6D6866
:1028600005F46051C90A0B4D6B5C4568DD40C560DD
:10287000054D6D6805F44041890B074D6B5CC568DB
:10288000B5FBF3F5056130BD0010024000127A007F
:1028900000093D00140000202400002010B501466E
:1028A0000022002300204A11012A02D1094C23688A
:1028B00006E0022A02D1074C236A01E0054C636A54
:1028C00001F01F02012494401C4201D0012000E0CD
:1028D000002010BD0010024000210A4A11700A4A6F
:1028E00082F82010012802D0042808D103E0012139
:1028F000044A117004E00521024A117000E000BF93
:1029000000BF7047201002400010024001490860DB
:10291000704700003C0442420249096A0143014AEF
:10292000116270470010024010B504460420FEF703
:102930002FF9A0F52541A5390AD000F023F820464B
:1029400001F097FC4AF2A5510420FEF72FF90EE0A2
:102950007B20FFF7A3FF10B97A20FFF79FFF00F05D
:10296000CBF80121084600F079F800F0BBF8FFF73A
:1029700021FF10BD024909888143014A1180704737
:102980000428004010B501214FF0C050FFF7ECFEC5
:102990000120FFF7C5FEFEF7F2F80120FFF79CFFCC
:1029A00000BF4120FFF77AFF0028FAD04FF4807073
:1029B000FFF7B2FF0120FFF7A9FF00F09DF800F03C
:1029C00091F80121084600F049F800F08BF847F62D
:1029D000FF7000F077F800F085F810BD034800881C
:1029E00040F01000014908807047000004280040B2
:1029F000034800884FF6EF7108400149088070478E
:102A000004280040002103480188001F008841EA93
:102A1000004070471C28004001460020064A1288EA
:102A20000A40D0B2044A121F12880A4202D008B1EA
:102A3000012000E0002070470428004010B501206C
:102A4000FFF7EAFF38B10120FFF794FF01200249A8
:102A5000086000F047F810BDDC00002029B1064AEC
:102A600012880243044B1A8004E0034A128882430E
:102A7000014B1A80704700000028004008B54FF451
:102A8000C060FFF705FE03208DF8000001208DF8DF
:102A9000010000208DF8020001208DF80300684637
:102AA000FFF7BCFD08BD000000B50246FFF796FF2A
:102AB000100C03490880091D0A80FFF799FF00BD2B
:102AC0001828004000B50246FFF788FFC2F3034014
:102AD00003490880091D0A80FFF78AFF00BD000036
:102AE0000828004000BF0348008810F0200FFAD0EB
:102AF0007047000004280040064800884FF6F77130
:102B000008400449088000BF0248008810F0080F00
:102B1000FAD07047042800402DE9F04397B0002513
:102B2000502101A8FDF739FB002400BF15A916A804
:102B300001F0D6FF01A9169841F825000BA81599B8
:102B400040F82510681CC5B24FF400713B48FEF7F1
:102B50004CFF08B90A2DE9DB4FF400713748FEF746
:102B600044FF0A2D68D1019E3746DDF82C80C1460E
:102B7000012411E001A850F82400B04203DA01A8B2
:102B800050F8246007E001A850F82400B84202DDA4
:102B900001A850F82470641C0A2CEBDB012411E01E
:102BA0000BA850F82400404503DA0BA850F8248005
:102BB00007E00BA850F82400484502DD0BA850F8A8
:102BC0002490641C0A2CEBDBDDE901010844039925
:102BD000084404990844059908440699084407994B
:102BE000084408990844099908440A990844801B34
:102BF000C01BC0F3CF0012490880DDE90B1001446F
:102C00000D9801440E9801440F9801441098014416
:102C100011980144129801441398014414980844EF
:102C2000A0EB0800A0EB0900C0F3CF0004494880E6
:102C3000084617B0BDE8F0830020FAE7001C014009
:102C4000CE00002070B50025002427E000BF4FF41F
:102C500080611448FEF7C9FE0028F8D00420FEF772
:102C600089FA4FF480610F48FEF7BFFE01280ED1AC
:102C700000BF4FF480610B48FEF7B7FE0128F8D083
:102C8000C4F1070101208840C0B2054304E0C4F14B
:102C90000701012088408543601CC4B2082CD5DBA5
:102CA000284670BD000C014010B50446FEF74AF9F5
:102CB0004FF480612648FEF7A1FE4FF4E160FEF775
:102CC00059FA4FF480612248FEF7DCFE0320FEF73C
:102CD00051FAFEF727F94FF480611D48FEF785FE93
:102CE00088BB00BF4FF480611948FEF77EFE0028C4
:102CF000F8D000BF4FF480611548FEF776FE01283A
:102D0000F8D0FFF79FFF2070FFF79CFF6070FFF780
:102D100099FFA070FFF796FFE070FFF793FF207117
:102D2000FEF710F94FF480610948FEF7ABFE2078FA
:102D300061780844A1780844E17808442179884200
:102D400002D1012010BD01E00020FBE70020F9E7DF
:102D5000000C01407CB50546002400200090019045
:102D600000F0DAF810F0007F02D00E2420467CBD7F
:102D70003C49098888B26946FEF79AFC04460CB1C2
:102D80002046F4E7012D35D1019810F4802F2ED084
:102D900034480088000434490860372048604020E7
:102DA00088600020C860A8020861084600F0EEF8BC
:102DB0003720FDF7D3FF04460CB12046D7E70220A9
:102DC0002949086006204860402088600020C860CB
:102DD0004FF480600861084600F0D8F80620FDF73F
:102DE000BDFF04460CB12046C1E72046BFE72524BD
:102DF0002046BCE7019810F4803F2FD01948008886
:102E0000000419490860372048604020886000208D
:102E1000C8604FF480600861084600F0B7F83720BA
:102E2000FDF79CFF04460CB12046A0E700200E49A8
:102E3000086006204860402088600020C8604FF489
:102E400080600861084600F0A1F80620FDF786FFC3
:102E500004460CB120468AE7204688E72524204610
:102E600085E70000640100203011002001498863DB
:102E70007047000000800140014908607047000071
:102E8000A000304201490860704700008C053042C4
:102E900000210A4B02685A6242689A621A46D16A55
:102EA00021F0F701D0E902231A4303691A43436969
:102EB0001A431143014AD16270470000008001406B
:102EC00000200649086048608860C86048628862DF
:102ED000C862034888630020C863704700800140CF
:102EE000FF07C00001480069C0B270470080014080
:102EF00001460020034A526B0A4201D0012000E043
:102F000000207047008001400248006800F0030084
:102F1000704700000080014008B501460020009085
:102F20000248084400900098006808BD14800140E1
:102F300029B1064AD26B0243044BDA6304E0034A28
:102F4000D26B8243014BDA6370470000008001407E
:102F500000210A4A516847F6FF629143027D836867
:102F60001A4343681A43C3681A4303681A43036940
:102F70001A431143014A516070470000008001402C
:102F80000148006870470000808001400021094B23
:102F900002689A601A46D1686FF30A01D0E90123EA
:102FA0001A43C3681A4303691A431143014AD160A3
:102FB00070470000008001400549096821F00301C5
:102FC000034A11601146096801431160704700000F
:102FD0000080014010B50248FEF786F810BD0000E1
:102FE0000020001030B58BB005460C461348FDF7A5
:102FF000BBFF00211248FDF7C5FF12480090019564
:1030000000200290A00803900020049080200590EA
:103010008000069080000790002008904FF4005038
:10302000099000200A9069460548FEF773F80121CF
:103030000348FDF7A7FF0BB030BD000000F0001003
:10304000440402408080014030B58BB005460C46F8
:103050001348FDF789FF00211248FDF793FF12483E
:103060000090019510200290A00803900020049089
:103070008020059080000690800007900020089036
:103080004FF40050099000200A9069460548FEF769
:1030900041F801210348FDF775FF0BB030BD00007A
:1030A00000F00010440402408080014070B50446E6
:1030B000002521480068032802D12725284670BD35
:1030C0001D48006838B11C480068012803D01A4820
:1030D000006802282ED1B4F5805F02D1272528464A
:1030E000EDE7B4F5006F14D10120FFF733FE05467C
:1030F00005BB012011490875002008604860886000
:103100004FF40060C860002008610846FFF720FF08
:1031100010E00020FFF71EFE05465DB901200749BB
:1031200008750020086048608860C860086108462B
:10313000FFF70EFF2846C2E76001002018110020AB
:1031400030B5014600200022B74B1B7881F84E3085
:10315000B64B1B88A1F84C30B54B1B681A0E93096F
:103160000B70C2F383034B7002F003038B70B04B00
:103170001B68C3F30742CA70AD4B1B88C3F3072219
:103180000A71AB4B1A784A715B681A0E1301CB8037
:10319000A74B5B68C3F30742CB8843EA1213CB808B
:1031A00002F00F030B72A24B9B88C3F30722D309D3
:1031B0004B72C2F380138B72C2F34013CB72C2F313
:1031C00000130B7300234B73974B1B681BB1964B7B
:1031D0001B68012B3CD193071B0D0B61944B1A7993
:1031E0000B6943EA82030B61914B9B681A0E0B69D2
:1031F00043EA92130B61C2F3C2030B7502F007039B
:103200004B758B4B9B68C3F3074253098B75C2F315
:103210008203CB7593075B0F0B76854B1B89C3F33A
:1032200007220B7E43EAD2130B760B695B1C4B64BF
:103230000C7E4B6CA41C0125A5406B434B640C7A9F
:103240000123A3408B64D1E9113463434B6421E033
:10325000754B1B68022B1DD1754B1A7993069B0A7F
:103260000B61734B9B681A0E0B6943EA02230B61D7
:103270006F4B9B68C3F307420B6913430B616C4BA5
:103280001B89C3F307220B695B1CDB044B644FF4FF
:1032900000738B64C2F3801301F8193F93065B0E31
:1032A0004B70634B1A7A4B7843EAD2134B7002F09F
:1032B0007F038B705E4BDB681A0ED309CB70C2F3B1
:1032C00041130B71C2F382034B7193071B0F8B7178
:1032D000574BDB68C3F307428B7943EA92138B7138
:1032E000C2F34013CB7100230B7202F001034B7247
:1032F0004F4B9B89C3F30722D3098B72C2F3801310
:10330000CB72C2F340130B73C2F300134B73C2F3BF
:1033100081038B7302F00303CB73454B1A7B530875
:103320000B7401234B74434B1B681A0ECA74A1F132
:103330001901404B1B68C3F307424FEA0224CC85B6
:103340003C4B1B88C3F30722CB8D43EA0203CB859A
:10335000384B1A784FEA02640C635B684FEA1362D9
:103360000B6B43EA02440C63324B5B68C3F30742C6
:103370000B6B43EA02240C632E4B9B88C3F307229A
:103380000B6B43EA02030B632A4B1A794FF03403A9
:103390005A54284B9B684FEA13624FF035035A5436
:1033A000244B9B68C3F307424FEA02648C63214BB2
:1033B0001B89C3F307228B6B43EA02448C631D4BCA
:1033C0001A7A8B6B43EA02248C631A4BDB684FEA50
:1033D00013628B6B43EA02038B63164BDB68C3F308
:1033E00007424FF03C035B5C43EA12144FF03C038E
:1033F0005C544FEA02734FEA1354CC870D4B9B8900
:10340000C3F30722CB8F43EA0203CB87094B1A7B16
:103410004FEA52044FF040035C544FF001044FF068
:1034200041035C5430BD00006001002064010020B5
:1034300098100020A810002008B5002000906846D1
:1034400000F0ACFA08B1FF2008BD0098C0F343209B
:10345000FAE710B50424FFF7EFFF0446042C01D16E
:10346000002010BDFF2C01D10220FAE70120F8E76F
:1034700010B50024FEF7E8F9FFF722FD00F0CEF8C2
:1034800004460CB1204610BD00F02AF804460CB1E9
:103490002046F8E7012010490875002008604860C0
:1034A0008860C86008610846FFF752FD1CB90B48E8
:1034B000FFF746FE044634B90849B1F84C10080439
:1034C00000F052FA044624B94FF40060FFF7EEFD15
:1034D00004462046D7E7000018110020C81000203D
:1034E00038B5002401200090FFF70EFD10B9252407
:1034F000204638BD44480068042828D000204349AD
:10350000086002204860C02088600020C8604FF436
:10351000806008610846FFF739FDFDF733FC04467B
:103520000CB12046E5E70020FFF7F6FC38490860BB
:103530000420FFF7F1FC364948600820FFF7ECFC57
:10354000334988600C20FFF7E7FC3149C8602E48FA
:10355000006858B12C480068012807D02A48006844
:10356000062803D028480068022816D100202749E1
:10357000086003204860402088600020C8604FF445
:10358000806008610846FFF701FD69460320FDF7EA
:1035900039FC04460CB12046ABE71B480068042800
:1035A0002ED0BDF800001B490860BDF800000004E3
:1035B0001649086009204860C02088600020C86063
:1035C0004FF4806008610846FFF7E0FCFDF7DAFB86
:1035D00004460CB120468CE70020FFF79DFC0E4905
:1035E00008600420FFF798FC0B4948600820FFF7AB
:1035F00093FC094988600C20FFF78EFC0649C860DF
:103600000024204675E700006001002030110020F2
:10361000A810002064010020981000202DE9F0413E
:103620000024002600250027A046B220594908752D
:103630000020086048608860C86008610846FFF79D
:1036400087FC0320FFF7B8FC0120FFF715FC0020E2
:103650005149086048608860C8604FF48060086124
:103660000846FFF793FCFDF763FB044614B12046C0
:10367000BDE8F0814FF4D5704749086008204860E4
:10368000402088600020C8604FF4806008610846D0
:10369000FFF77CFCFDF704FC04462CB901203F49F0
:1036A00008604FF0804812E000203B490860372056
:1036B0004860402088600020C8604FF48060086146
:1036C0000846FFF763FC3720FDF748FB044600205F
:1036D0003149086037204860402088600020C86079
:1036E0004FF4806008610846FFF750FC3720FDF773
:1036F00035FB0446002C4AD136E0002026490860FC
:1037000037204860402088600020C8604FF4806007
:1037100008610846FFF73AFC3720FDF71FFB044617
:103720000CB12046A4E71E4848EA00001A49086088
:1037300029204860402088600020C8604FF48060E5
:1037400008610846FFF722FCFDF740FB04460CB178
:1037500020468DE70020FFF7DFFB0646012080EAC8
:10376000D67080F001076D1C1FB94FF6FF708542BF
:10377000C3D34FF6FF70854202D31B24204677E760
:1037800006F08040060002D002200449086020466E
:103790006EE70000181100203011002060010020A9
:1037A000000010802DE9F04107460D461446002622
:1037B00000202C4908702C4908602C4908602C49CD
:1037C000C8622C480068022801D104026D0A2A4808
:1037D0000460102028494860402088600020C860AC
:1037E0004FF4806008610846FFF7D0FB1020FDF71A
:1037F000B5FA064616B13046BDE8F0814FF0FF300D
:103800001E49086008464460902088600220C86015
:1038100000200861012048610846FFF739FB16487F
:103820000560112014494860402088600020C8606D
:103830004FF4806008610846FFF7A8FB1120FDF7F0
:103840008DFA06460EB13046D6E701210802FFF791
:103850006FFB0120FFF716FB21463846FFF7C2FB3E
:103860003046C9E76C01002070010020680100208B
:103870000080014060010020301100204411002030
:103880002DE9F04180460D4614461E4600270020D3
:103890002E4908702E49086001202E49086000203A
:1038A0002D49C8622D480068022801D104026D0A22
:1038B0002B48046010202A4948604020886000207E
:1038C000C8604FF4806008610846FFF75FFB102076
:1038D000FDF744FA074617B13846BDE8F0814FF0CE
:1038E000FF302049086006FB04F0486090208860A3
:1038F0000220C86000200861012048610846FFF7E7
:10390000C7FA1748056012201549486040208860B2
:103910000020C8604FF4806008610846FFF736FB5E
:103920001220FDF71BFA07460FB13846D5E70121F3
:103930000802FFF7FDFA0120FFF7A4FA06FB04F1E5
:103940004046FFF74FFB3846C7E700006C010020F8
:10395000700100206801002000800140600100200B
:10396000301100204411002070B5044600250A489B
:103970000460072008494860402088600020C86033
:103980004FF4806008610846FFF700FB0720FDF751
:10399000E5F90546284670BD3011002070B5044693
:1039A00000250A48008800040949886040F24D401B
:1039B000C8600D20FDF7D2F905460DB1284670BD4F
:1039C0000348406920602846F9E7000064010020B0
:1039D0000080014010B5002400BFFFF7FBFA30B9AA
:1039E0000748006818B9074800780028F5D005484E
:1039F000007810B10348007810BD2046FCE70000B5
:103A0000700100206C01002010B5002400BFFFF7FA
:103A1000E1FA30B90948006818B909480078002867
:103A2000F5D00748007810B10548007810BD40F285
:103A3000FF50FFF71BFA2046F8E700007001002056
:103A40006C0100202DE9F04107460D461446002682
:103A500000202C4908702C4908602C4908602C492A
:103A6000C8622C480068022801D104026D0A2A4865
:103A70000460102028494860402088600020C86009
:103A80004FF4806008610846FFF780FA1020FDF7C8
:103A900065F9064616B13046BDE8F0811E4805605E
:103AA00018201D494860402088600020C8604FF4FD
:103AB000806008610846FFF769FA1820FDF74EF9A3
:103AC00006460EB13046E7E74FF0FF301349086075
:103AD00008464460902088600020C860086101208A
:103AE00048610846FFF7D4F901210802FFF720FAE0
:103AF00021463846FFF7A8FA0120FFF7C3F9304600
:103B0000CAE700006C01002070010020680100205D
:103B1000008001406001002030110020441100208D
:103B20002DE9F84380460F4615461E460024002026
:103B300000904549087045490860012044490860E3
:103B400000204449C86244480068022801D10502A7
:103B50007F0A424805601020404948604020886044
:103B60000020C8604FF4806008610846FFF70EFA35
:103B70001020FDF7F3F8044614B12046BDE8F883A1
:103B800037480088000435490860372048604020E5
:103B900088600020C8604FF4806008610846FFF725
:103BA000F5F93720FDF7DAF804460CB12046E5E7D1
:103BB0002A48066017202949486040208860002074
:103BC000C8604FF4806008610846FFF7DFF91720EE
:103BD000FDF7C4F804460CB12046CFE71F48076044
:103BE00019201E494860402088600020C8604FF4BA
:103BF000806008610846FFF7C9F91920FDF7AEF8A3
:103C000004460CB12046B9E74FF0FF301549086073
:103C100006FB05F04860902088600020C8600861BD
:103C2000012048610846FFF733F901210802FFF738
:103C30007FF90120FFF726F906FB05F14046FFF763
:103C400003FA20469AE700006C0100207001002072
:103C50006801002000800140600100203011002038
:103C6000640100204411002021B1028842F040028A
:103C7000028004E002884FF6BF731A40028070474A
:103C800070B505460C46164610211048FDF7B6FEE5
:103C9000032000F05DF9C4F3074000F059F9C4F3C4
:103CA000072000F055F9E0B200F052F904E0FF20DF
:103CB00000F04EF928706D1C3000A6F101018EB2A3
:103CC000F5D110210148FDF7DDFE70BD000801406F
:103CD0002DE9F05F07460E4614464FF00008C14636
:103CE000C2460025AB4606F0FF0ACAF10000C5B285
:103CF0002046E11704EB1161C1F30728E11704EB3B
:103D000011610912A4EB012101F0FF09BAF1000FC2
:103D100020D1B8F1000F05D122463146384600F0D7
:103D2000C5F864E009E04FF480723146384600F08F
:103D3000BDF806F5807607F580775FEA0800A8F100
:103D4000010101F0FF08EED14A463146384600F045
:103D5000ADF84CE0B8F1000F18D1A94510DDA9EB82
:103D6000050000F0FF0B2A463146384600F09EF869
:103D70002E442F445A463146384600F097F836E034
:103D800022463146384600F091F830E0601B84B29C
:103D90002046E11704EB1161C1F30728E11704EB9A
:103DA00011610912A4EB012101F0FF092A463146F5
:103DB000384600F07BF82E442F4409E04FF480721F
:103DC0003146384600F072F806F5807607F58077C0
:103DD0005FEA0800A8F1010101F0FF08EED1B9F196
:103DE000000F04D04A463146384600F05FF8BDE87F
:103DF000F09F000000B587B001212420FEF7C4FC2D
:103E000001210803FEF7C0FC2020ADF804000320C8
:103E10008DF8060018208DF8070001A92148FDF74C
:103E20005BFD4020ADF8040001A91E48FDF754FDDC
:103E30008020ADF8040001A91A48FDF74DFD1020BF
:103E4000ADF804008DF8070001A91648FDF744FD00
:103E500010211448FDF716FE0020ADF808004FF4BD
:103E60008270ADF80A000020ADF80C000220ADF819
:103E70000E000120ADF810004002ADF8120008203D
:103E8000ADF814000020ADF816000720ADF81800BA
:103E900002A9054800F0AEF801210348FFF7E4FE4F
:103EA00007B000BD000801400030014070B5054674
:103EB0000C46164600F080F810211348FDF79EFDD1
:103EC000022000F045F8C4F3074000F041F8C4F3C5
:103ED000072000F03DF8E0B200F03AF8B6F5807F38
:103EE00001DD4FF4807603E0287800F031F86D1C96
:103EF0003000A6F101018EB2F6D110210248FDF783
:103F0000C1FD00F041F870BD0008014010B5044645
:103F100000F052F800F038F810210C48FDF76EFD63
:103F2000202000F015F8C4F3074000F011F8C4F3A6
:103F3000072000F00DF8E0B200F00AF81021034865
:103F4000FDF7A0FD00F020F810BD000000080140C2
:103F500010B5044600BF02210A4800F03DF80028D1
:103F6000F9D02146074800F043F800BF0121054879
:103F700000F032F80028F9D0024800F036F8C0B25C
:103F800010BD00000030014010B500241021094888
:103F9000FDF734FD0520FFF7DBFF00BFFF20FFF733
:103FA000D7FF044614F0010FF8D110210148FDF7A6
:103FB00069FD10BD0008014010B510210548FDF74E
:103FC0001DFD0620FFF7C4FF10210248FDF75AFD32
:103FD00010BD0000000801400246002013890B427A
:103FE00001D0012000E00020704701468889704719
:103FF0008181704710B50022028802F441520B887B
:104000004C8823438C882343CC8823430C89234347
:104010004C8923438C892343CC8923431A43028050
:10402000838B4FF2FF74234083830B8A038210BD7E
:10403000704710B500F002F810BD00000CB500206C
:10404000019000903248006840F4803030490860A8
:1040500000BF2F48006800F4003000900198401C19
:104060000190009818B90198B0F5A06FF1D12848D7
:10407000006810F4003F02D00120009001E0002011
:1040800000900098012842D12248006840F01000BA
:10409000204908600846006820F0030008600846D0
:1040A000006840F0020008601948406818494860FC
:1040B0000846406848600846406840F480604860B0
:1040C0000846406820F47C1048600846406840F488
:1040D000E81048600846006840F08070086000BF43
:1040E0000B48006810F0007FFAD00948406820F0C3
:1040F0000300074948600846406840F002004860F5
:1041000000BF0348406800F00C000828F9D10CBD3E
:10411000001002400020024010B500F0A1FA10BDCE
:1041200030B51A4800681A4AB0FBF2F1B1F1807F4D
:1041300001D301201DE021F07F40401E4FF0E0221E
:10414000506150170F22002807DA13071D0E114B7C
:1041500000F00F04241F1D5503E013071C0E0E4B27
:104160001C5400BF00204FF0E02290610720106136
:10417000002008B100BFFEE74FF0E020006920F00A
:1041800001004FF0E021086130BD00000000002078
:10419000A086010018ED00E000E400E010B513482F
:1041A000006840F001001149086008464068104965
:1041B00008400E494860084600680E4908400B490F
:1041C00008600846006820F48020086008464068BF
:1041D00020F4FE0048604FF41F008860FFF729FFBD
:1041E0004FF000600449086010BD0000001002405C
:1041F0000000FFF8FFFFF6FE08ED00E00EB501211C
:104200008120FEF7C1FA00F021F84FF40070ADF8FC
:10421000080028208DF80B0002A90B48FDF75CFB75
:1042200009210520FDF738FB4FF4007000900020B5
:104230008DF804000C208DF8050001208DF8060093
:104240006846FDF761F90EBD001C014008B54FF44A
:10425000C060FEF71DFA17208DF8000001208DF8D0
:1042600001008DF802008DF803006846FEF7D6F9CC
:1042700008BD70B50446FEF735FC204600F07CF81A
:104280002046FDF7C1FC204602F0AEFC0546FEF7D5
:104290000BFCFEF727FC70BD2DE9F04105460C46EE
:1042A00005F5E1462146304602F06CFE4FF6FF73FD
:1042B00069210A206269FDF72DFD4FF6FF73692120
:1042C0002D202269FDF726FD4FF6FF7369213C2062
:1042D000E268FDF71FFD6069C01E0C2190FBF1F242
:1042E00001FB12001F4951F820704FF6FF733A4648
:1042F00064215020FDF715FE4FF6FF731AA28421AA
:104300000A20FDF70EFE1A49A06951F820204FF649
:10431000FF7384212A20FDF704FE4FF6FF739621D8
:104320000A20A268FDF7F6FC4FF6FF7311A2962152
:104330001620FDF7D8FD4FF6FF7396212220626804
:10434000FDF7E8FC4FF6FF730AA296212E20FDF739
:10435000CAFD4FF6FF73962134202268FDF7DAFC80
:10436000BDE8F08100010020D0C7C6DA00000000DF
:10437000E40000203A0000002DE9F04704464FF029
:10438000FF0AFF25FF26FF27A846A94636A000F012
:104390005BFE44A000F058FE03E0632000F074FDD3
:1043A0008246BAF1FF0FF8D0514648A000F04CFE0B
:1043B0000AF5FA606061FF254CA000F045FE03E0BD
:1043C0000C2000F061FD0546FF2DF9D0294651A0D3
:1043D00000F03AFE2561FF2654A000F035FE03E010
:1043E0001F2000F051FD0646FF2EF9D0314658A09F
:1043F00000F02AFEE660FF275BA000F025FE03E048
:10440000172000F041FD0746FF2FF9D039465FA085
:1044100000F01AFEA7604FF0FF0862A000F014FE43
:1044200003E03B2000F030FD8046B8F1FF0FF8D0EC
:10443000414666A000F008FEC4F804804FF0FF0972
:1044400068A000F001FE03E03B2000F01DFD814666
:10445000B9F1FF0FF8D049466CA000F0F5FDC4F8A3
:104460000090BDE8F08700000D0A3D3D3D3D3D3D1B
:104470003D3D3D3D3D3D3D3D3D3D3D3D3D3D3D3D6C
:104480003D3D3D54696D652053657474696E677375
:104490003D3D3D3D3D3D3D3D3D3D3D3D3D3D3D3D4C
:1044A0003D3D00000D0A2020C7EBCAE4C8EBC4EA7A
:1044B000B7DD28506C6561736520536574205965BC
:1044C000617273293A202032300000000A0D20204A
:1044D000C4EAB7DDB1BBC9E8D6C3CEAA3A202032C0
:1044E0003025302E32640A0D000000000D0A202015
:1044F000C7EBCAE4C8EBD4C2B7DD28506C65617362
:104500006520536574204D6F6E746873293A2020BE
:10451000000000000A0D2020D4C2B7DDB1BBC9E8FD
:10452000D6C3CEAA3A202025640A0D000D0A202009
:10453000C7EBCAE4C8EBC8D5C6DA28506C6561730E
:104540006520536574204461746573293A20200006
:104550000A0D2020C8D5C6DAB1BBC9E8D6C3CEAA99
:104560003A202025640A0D000D0A2020C7EBCAE47A
:10457000C8EBCAB1D6D328506C656173652053650A
:104580007420486F757273293A2020000A0D20208C
:10459000CAB1D6D3B1BBC9E8D6C3CEAA3A2020252A
:1045A000640A0D000D0A2020C7EBCAE4C8EBB7D699
:1045B000D6D328506C6561736520536574204D69AE
:1045C0006E75746573293A20200000000A0D2020C2
:1045D000B7D6D6D3B1BBC9E8D6C3CEAA3A202025D8
:1045E000640A0D000D0A2020C7EBCAE4C8EBC3EB38
:1045F000D6D328506C65617365205365742053656C
:10460000636F6E6473293A20200000000A0D202099
:10461000C3EBD6D3B1BBC9E8D6C3CEAA3A20202576
:10462000640A0D0070B504460B48006898B1FEF7A7
:10463000E9F905462146FFF72FFE002006490860EC
:1046400006480068401C05490860084600680A28BA
:1046500001D10020086070BDDC000020E0000020D7
:104660000448006820B103480068401E0149086002
:10467000704700004C00002010B54FF4784315A29D
:1046800000213620FDF74DFC4FF4784313A20021A2
:104690009220FDF746FC4FF4784312A200216420DB
:1046A000FDF73FFC4FF4784310A20421C020FDF732
:1046B000E1FB4FF478430FA2D2210020FDF731FC3B
:1046C0004FF478430DA2D2214FF48C70FDF729FCF2
:1046D00010BD0000CEC2B6C800000000D1CCCEEDA7
:1046E00000000000CAAAB6C800000000504D322EDB
:1046F00035000000C8B7B6A800000000B7B5BBD8A9
:104700000000000008B50020F0234FF4A07201461D
:104710000090FDF7C7FA4FF478430EA2D221002093
:10472000FDF7FFFB4FF478430CA2D2214FF48C70BD
:10473000FDF7F7FB4FF478430AA220210020FDF794
:10474000F0FB4FF4784309A280210020FDF7E9FB3C
:1047500008BD0000C8B7B6A800000000B7B5BBD8B8
:1047600000000000D2BBCCEC00000000D2BBD4C2E1
:10477000000000002DE9F04F8DB00026B14600206A
:104780000B900A90002432E00020F0234FF4A07236
:1047900001460090FDF786FA4FF47843B6A26E21E9
:1047A0000846FDF7A0FB4FF47843621C5A21A02075
:1047B000FDF7B0FA4CF25030FCF7DCFCB44A02EBE7
:1047C00084025188B24A32F82400FCF7E7FC00BFAB
:1047D000FEF7A2F90546002DFAD02888AD4921F848
:1047E0002400688801EB84014880601CC4B2042C5A
:1047F000CADBA94AA749A648FCF7E8F9A549C88930
:10480000FBF7FCFE8246A448D0E902733A465046C4
:10481000FBF7FDFDCDE902019E498889FBF7EEFE1D
:1048200082469D48D0E900733A465046FBF7EFFDBB
:10483000CDE90001DDE90223FBF742FDCDE90401EA
:104840009548D0E904733A460498FBF739FDCDE961
:1048500006019149D1E90C733A460799FBF749FEE5
:10486000CDE90801FBF7EBFE86B28A49C889FBF760
:10487000C5FE82468848D0E908733A465046FBF7A1
:10488000C6FDCDE9020183498889FBF7B7FE824660
:104890008148D0E906733A465046FBF7B8FDCDE9AA
:1048A0000001DDE90223FBF70BFDCDE904017A48A5
:1048B000D0E90A733A460498FBF702FDCDE90601F8
:1048C0007548D0E90C733A460698FBF712FECDE91D
:1048D0000801FBF7B4FE1FFA80F96D488089B042E9
:1048E00003DA6B488089301A02E069488089801BAE
:1048F00080B20B906648C089484504DA6448C08994
:10490000A9EB000003E06248C089A0EB090080B277
:104910000B900020F0234FF4A07201460090FDF7A9
:10492000C1F90B980A2802DC0A980A2814DD4FF412
:1049300078435AA264210846FDF7D5FA4FF478432C
:104940005AA278216420FDF7CEFA5B48FCF712FCEE
:1049500001200DB0BDE8F08F4F480022574BD0E941
:1049600000713846FBF753FD82468B464A49D1E930
:104970000C733A465946FBF7BCFD514A03C24649FF
:10498000D1E9027100224D4B3846FBF740FD8246CB
:104990004148D0E90C733A465046FBF7AAFD484A15
:1049A000C2E902013C49D1E904710022434B384677
:1049B000FBF72DFD82468B463749D1E90C733A4609
:1049C0005946FBF796FD3E4AC2E9040132480022EF
:1049D0003A4BD0E906713846FBF719FD82462E485E
:1049E000D0E90C733A465046FBF783FD344AC2E9DE
:1049F000060129480022314BD0E908713846FBF7FF
:104A000006FD82462448D0E90C733A465046FBF72F
:104A100070FD2B4AC2E908011F480022274BD0E94C
:104A20000A713846FBF7F3FC82461B48D0E90C7349
:104A30003A465046FBF75DFD214AC2E90A0155207E
:104A4000204908700020FFF761FA012200211D486B
:104A5000FFF73EF9302201211948FFF739F94FF4E9
:104A6000784319A264210846FDF73DFA1B48FCF77C
:104A700081FB00206DE70000546F7563682043617F
:104A80006C6962726174652E2E2E2E2E2E0000002F
:104A9000BA000020501000206010002043616C69B3
:104AA0006272617465206661696C000074727920BD
:104AB000616761696E000000400D03000000F03F77
:104AC00088000020B800002043616C696272617444
:104AD000652053756363656400000000A0860100D3
:104AE0002DE9F04104460D46902000F03FFA0646BD
:104AF0000120FCF72EFBD02000F038FA0746266094
:104B00002F60BDE8F08110B5FCF77AFF10BD000002
:104B100000B585B0012144F20400FDF735FE4FF4E5
:104B20000070ADF8100018208DF8130003208DF8E8
:104B3000120004A91348FCF7CFFE4FF48060ADF8D3
:104B4000100004208DF8130004A90E48FCF7C4FEE1
:104B50004FF4E13000900020ADF80400ADF80600FD
:104B6000ADF80800ADF80C000C20ADF80A0069465D
:104B7000054800F017F90121034800F0D4F805B00A
:104B800000BD0000000801400038014000B585B0BC
:104B900001210420FDF7F8FD01214804FDF7E4FDA3
:104BA0000420ADF8100018208DF8130003208DF8B4
:104BB000120004A91848FCF78FFE0820ADF8100079
:104BC00004208DF8130004A91348FCF785FE4FF468
:104BD000165000900020ADF80400ADF80600ADF8C6
:104BE0000800ADF80C000C20ADF80A0069460B482F
:104BF00000F0D8F8012240F22551084800F0ACF846
:104C0000012240F22441054800F0A6F801210348A2
:104C100000F089F805B000BD0008014000440040E4
:104C20000FB470B586B006460CA8019073E00B98DF
:104C300000785C281CD10B98401C0B9000786E28E3
:104C400009D072280FD10D21304600F089F90B9858
:104C5000401C0B900BE00A21304600F081F90B98C4
:104C6000401C0B9003E00B98401C0B9000BF4BE0E6
:104C70000B980078252840D10B98401C0B900078A9
:104C8000642818D0732833D1019810C801900BE024
:104C90002178304600F064F900BF8021304600F0F2
:104CA0004EF80028F9D0641C20780028F0D10B9829
:104CB000401C0B9020E0019820C801900A2202A914
:104CC000284601F016FE02AC0BE02178304600F0D9
:104CD00047F900BF8021304600F031F80028F9D0B4
:104CE000641C20780028F0D10B98401C0B9003E046
:104CF0000B98401C0B9000BF06E00B9810F8011BAE
:104D00000B90304600F02CF900BF8021304600F0B7
:104D100016F80028F9D00B980078002887D106B043
:104D200070BC5DF814FB21B1828942F4005282818B
:104D300004E082894DF6FF731A4082817047024673
:104D40000020B1F5007F00D100BF13880B4201D0D5
:104D5000012000E000207047F0B503460024002643
:104D600000250020A1F510676A3F00D100BF18465A
:104D7000C1F3421401F01F06012707FA06F5012CC2
:104D800001D10C3004E0022C01D1103000E01430CD
:104D90001AB107682F43076002E00768AF43076056
:104DA000F0BD00002DE9F04786B005460E46002410
:104DB000A24600BFA1460027B08900B100BF2F4620
:104DC0002C8A4CF6FF700440F08804432C82AC8996
:104DD0004EF6F3100440B0883189084371890843C6
:104DE0000443AC81AC8A4FF6FF400440B0890443D1
:104DF000AC8201A8FDF7E8FC1F48874202D1DDF82C
:104E000010A001E0DDF80CA0A88910F4004F08D034
:104E10000AEBCA0000EB0A1031684900B0FBF1F858
:104E200007E00AEBCA0000EB0A1031688900B0FB0A
:104E3000F1F86420B8FBF0F004012009642101FBC3
:104E40001089A88910F4004F08D0322000EBC90067
:104E5000B0FBF1F000F00700044308E0322000EB63
:104E600009106421B0FBF1F000F00F0004432C8125
:104E700006B0BDE8F0870000003801400146888890
:104E8000C0F30800704700007CB5054600240020F0
:104E9000009001901BE000BF20211748FFF74FFF53
:104EA0000028F9D01448FFF7E9FF2146641C4DF8AB
:104EB0002100601E5DF82000302804D3601E5DF8DC
:104EC0002000392803D90DA000F0BEF8641E022C82
:104ED000E1D3019830380099303901EB810100EBC2
:104EE0004104AC4205D9294611A000F0ADF8FF20DD
:104EF0007CBDE0B2FCE70000003801400A0D506CB8
:104F00006561736520656E7465722076616C696495
:104F1000206E756D626572206265747765656E20BE
:104F20003020616E642039202D2D3E3A2020000073
:104F30000A0D506C6561736520656E74657220762C
:104F4000616C6964206E756D62657220626574774C
:104F500065656E203020616E6420256400000000CD
:104F6000C1F308028280704700BFFEE710B5044617
:104F7000204600F033F800F001F810BD70B50024B1
:104F80004FF400611348FCF739FD80211248FCF70B
:104F900079FD002518E080210F48FCF72FFD402106
:104FA0000C48FCF722FD08B1012000E00020064675
:104FB000C5F10B0006FA00F0204384B280210648B8
:104FC000FCF760FD681CC5B20C2DE4DBC4F30B04D8
:104FD000204670BD001C01400020014070B506460F
:104FE0004FF400611648FCF709FD80211548FCF7D5
:104FF00005FD002421E0C4F1070046FA00F000F0AE
:1050000001052DB14FF400610D48FCF73BFD04E0B4
:105010004FF400610A48FCF7F1FC0520FCF799F811
:1050200080210848FCF72EFD0520FCF792F880212E
:105030000448FCF7E3FC601CC4B2082CDBDB70BD49
:10504000001C0140002001400FB4054B10B503A91E
:10505000044A029800F02CF810BC5DF814FB000024
:10506000296700088C0500200FB4084B10B504A96F
:1050700002AA039800F01CF8044602A9002000F0E0
:10508000F3F8204610BC5DF814FB000069520008DC
:1050900002E008C8121F08C1002AFAD17047704701
:1050A000002001E001C1121F002AFBD1704700005F
:1050B0002DE9FF4F8BB09A460F4605460026C9E002
:1050C000252837D100246D1C6649A04601222B7883
:1050D000203B02FA03F0084202D004436D1CF6E7BD
:1050E00028782E2817D115F8010F44F004042A2837
:1050F0000ED06FF02F022878A0F1300109290AD8CC
:1051000008EB880102EB410100EB01086D1CF2E79E
:1051100057F8048B6D1C287869283FD006DC0028DE
:1051200071D063280CD0642804D137E0732811D0E3
:1051300075284ED052460D99904706F1010688E039
:1051400017F8040B8DF8000000208DF80100E946E7
:10515000012003E057F8049B4FF0FF3061074FF048
:10516000000401D40AE0641C44450DDA8442FADBF1
:1051700019F804100029F6D106E0641C8442FCDB17
:1051800019F804100029F8D1264404E019F8010B9D
:1051900052460D999047641EF8D25AE001CF4FF065
:1051A0000A0B002804DAC0F100004FF02D0102E0E4
:1051B000210504D52B218DF82410012103E0E107FE
:1051C00005D02021F7E70DF1200908910CE000211E
:1051D000F9E701CF4FF00A0BF9E75946FBF75CFA04
:1051E00001F1300209F8012D0028F6D1ADEB0900DC
:1051F00000F1200B600701D44FF00108D84503DD12
:10520000A8EB0B0001E029E000208046002406E026
:1052100009A85246005D0D999047761C641C0898B9
:105220008442F5DB04E0302052460D999047761C0D
:10523000B8F10001A8F10108F5DC05E019F8010B4F
:1052400052460D999047761CBBF10001ABF1010B62
:10525000F4DC6D1C287800287FF432AF0FB03046A4
:10526000BDE8F08F092801000A68531C0B6010701C
:105270007047000070B504460D46607801232A4649
:1052800004F1300100F023FE08B1032070BD94F852
:105290002E1294F82F0241EA0020A0F52A41553938
:1052A00001D00220F2E794F86900010694F8680042
:1052B00041EA004194F8670041EA002094F8661042
:1052C000084320F07F400E49884201D10020DDE7ED
:1052D00094F88500010694F8840041EA004194F8AE
:1052E000830041EA002094F88210084320F07F40B8
:1052F0000349884201D10020C8E70120C6E7000029
:1053000046415400024600E0521C107810B110785B
:105310008842F9D1107870472DE9F74F88B0089886
:1053200000680190019800783038079007980928A4
:105330000AD8019840783A2806D10198801C01903B
:1053400008990198086001E000200790079818B1BB
:105350000B200BB0BDE8F08FD049079851F82040E2
:10536000099804600CB90C20F3E7207878B16078D4
:1053700000F0D4FD804618F0010F08D10A9820B142
:1053800018F0040F01D00A20E3E70020E1E7002035
:10539000207007986070607800F089FD804618F0F2
:1053A000010F01D00320D4E70A9820B118F0040FB0
:1053B00001D00A20CDE74FF0000B59462046FFF7F9
:1053C00059FF054600BF012D21D14FF0000ABAF167
:1053D000000F03D0AAF1010000F0FF0A4FF4DF70C4
:1053E00000EB0A1104F130000F18387978B1F87A1F
:1053F0000106B87A41EA0041787A41EA0020397A18
:1054000040EA010B59462046FFF734FF0546032DBD
:1054100001D101209DE70DB10D209AE73B20015DF0
:1054200094F83C0041EA0020B0F5007F01D00D2047
:105430008FE74620015D94F8470041EA0029B9F161
:10544000000F0ED194F85700010694F8560041EA77
:10545000004194F8550041EA002094F8541040EAC5
:105460000109C4F81C904020065DE670012E03D0AF
:10547000022E01D00D206CE709FB06F93D20005DEE
:105480000646A07016B1701E304201D00D2060E7B4
:105490004120015D94F8420041EA00202081207AF9
:1054A00010F00F0F01D00D2053E74320015D94F859
:1054B000440041EA00200690069870B994F8530021
:1054C000010694F8520041EA004194F8510041EA83
:1054D000002094F85010084306903E20015D94F897
:1054E0003F0041EA00200290029808B90D2030E701
:1054F00002984844218900EB11100590DDE905016F
:10550000814201D20D2024E7DDE90510401AA1787F
:10551000B0FBF1F00490049808B90D2019E70125BB
:1055200040F6F6710498884200D302254FF6F671D2
:105530000498884200D303250498801CA061059834
:105540005844A062029858442062032D16D1208945
:1055500008B10D20FDE694F85F00010694F85E00A6
:1055600041EA004194F85D0041EA002094F85C10A3
:1055700008436062A0698000039014E0208908B9A4
:105580000D20E6E6206A48446062022D02D1A0693F
:10559000400007E0207E00F00100A16901EB41011D
:1055A00000EB51000390E169039800F2FF10B1EBAA
:1055B000502F01D20D20CCE64FF0FF3020610020AB
:1055C000E060032D5CD1607194F8601094F8610084
:1055D00041EA0020584460616078012304F1300101
:1055E000626900F074FCE8BB94F82E1294F82F0264
:1055F00041EA0020A0F52A41553941D13320005D10
:1056000001063220005D41EA00413120005D41EA9F
:10561000002094F8301008432149884230D194F892
:105620001702010694F8160241EA004194F81502A7
:1056300041EA002094F8141208431A4988421FD105
:1056400094F81F02010694F81E0241EA004194F802
:105650001D0241EA002094F81C120843E06094F80F
:105660001B0200E00CE0010694F81A0241EA004136
:1056700094F8190241EA002094F8181208432061B6
:10568000257009480088401C80B207490880E080E6
:105690000020E062207100BF5BE60000840500206E
:1056A0005252614172724161880500200246891E92
:1056B0009069801E884201D8002070479378906AD4
:1056C00001FB0300F9E700002DE9F04705460C4611
:1056D000207820F04000401E00EB800101EBC00666
:1056E00000274FF0010800BF1A48C05D205C19492F
:1056F000C95D2144497840EA0129B8F1000F10D072
:10570000484600F065FF8046FF2E07D23146761CE2
:1057100035F8110000F05CFF404508D00020BDE8DE
:10572000F087A9F57F40FF3801D00020F7E7781C0B
:1057300007460D28D8D3207810F0400F07D0B8F1D5
:10574000000F04D035F8160008B10020E7E701206B
:10575000E5E70000987A00082DE9F04704468946FD
:10576000B9F1000F06D1E76817B1A069B84211D8A6
:1057700001270FE04946204601F047F80646022E71
:1057800002D20120BDE8F087A069B04201D93046BD
:10579000F8E74F463D4600BF6D1CA069A84204D8FB
:1057A0000225BD4201D90020ECE72946204601F040
:1057B0002CF8064606B909E0701C01D0012E01D173
:1057C0003046DFE7BD42E7D10020DBE700BF6FF0E6
:1057D00070422946204601F08EFA8046B8F1000F4B
:1057E00008D1B9F1000F05D02A464946204601F0FC
:1057F00082FA8046B8F1000F09D1E5602069401CAB
:105800000DD02069401E20610120607107E0B8F1D1
:10581000010F02D14FF0FF3000E00120054628467D
:10582000B0E700002DE9F34F83B08146049800688B
:10583000019002E00198401C0190019800782F2807
:10584000F8D0019800785C28F4D0D9F81CA0002585
:105850002F4600BF38467F1C01990C5C202C03DBCF
:105860002F2C01D05C2C00D132E0FF2D03D3062079
:1058700005B0BDE8F08FE4B2812C13DBE0B2FE2866
:1058800010DC38467F1C01990E5C402E01DB7E2E19
:1058900005DD802E01DBFE2E01DD0620E8E706EBAC
:1058A000042084B20121204600F054FE04460CB9C5
:1058B0000620DDE7802C06DA214671A0FFF722FDE5
:1058C00008B10620D4E728466D1C2AF81040C1E72D
:1058D00000BF0198C11904980160202C01DA04204E
:1058E00000E00020804608E0681E3AF81040202CB6
:1058F00002D02E2C00D002E06D1E002DF4D100BF8E
:105900000DB90620B4E700202AF815000B2220214B
:10591000D9F8180001F05EF9002700E07F1C3AF882
:1059200017002028FAD03AF817002E28F6D00FB129
:1059300048F0030800E06D1E25B1681E3AF810001B
:105940002E28F8D10020064602904FF0080B00BF29
:1059500038467F1C3AF8104004B963E0202C03D08D
:105960002E2C04D1AF4202D048F00308F0E7029891
:10597000584501D2AF4214D1BBF10B0F02D148F010
:1059800003084FE0AF4201D048F00308AF4200D90E
:1059900048E02F46082002904FF00B0BB006060E91
:1059A000D6E7802C09DB204600F012FE0021009093
:1059B00000F0D0FD044648F00208FF2C11DDABF1E9
:1059C00001000299884204D848F00308CDF808B0D5
:1059D000BEE72212D9F818300298411C02911A54DD
:1059E00019E024B1214629A0FFF78CFC18B15F24EF
:1059F00048F003080FE0412C04DB5A2C02DC46F08F
:105A0000020608E0612C06DB7A2C04DC46F0010675
:105A1000A4F1200084B2D9F818300298411C0291F8
:105A20001C5495E700BFD9F818000078E52803D189
:105A30000520D9F818100870BBF1080F01D1B00685
:105A4000060E06F00C000C2803D006F00300032815
:105A500001D148F0020818F0020F0BD106F0030044
:105A6000012801D148F0100806F00C00042801D1EB
:105A700048F00808D9F8180080F80B800020F7E6F5
:105A8000222A3A3C3E3F7C7F000000002B2C3B3D0D
:105A90005B5D00002DE9F04704460021204600F040
:105AA000B8F9074617B13846BDE8F0874FF0FF094F
:105AB000CA4600BF2169206801F0D6F8074607B141
:105AC00054E065692E780EB904274FE0E87A00F0BB
:105AD0003F08E52E05D018F0080F05D0B8F10F0FDC
